S0390000736B2D666D332D3438706D632D757362737469636B5F7573625F6465766963655F7669727475616C5F636F6D5F706F72742E73726563CC
S113000080E3FF1F25100000411000004510000090
S1130010491000004D1000005110000000000000C5
S11300200000000000000000000000005510000067
S113003059100000000000005D1000006110000075
S113004065100000691000006D10000071100000C0
S113005075100000791000007D1000008110000070
S113006085100000891000008D100000D9100000D8
S1130070D91000009110000095100000D910000064
S1130080D9100000991000009D100000D910000044
S1130090D9100000D9100000D9100000A1100000F0
S11300A0A5100000A9100000AD100000D910000038
S11300B0B1100000B5100000B9100000BD10000020
S11300C0D9100000D9100000C1100000C5100000B4
S11300D0D9100000D9100000C9100000CD10000094
S11300E0D1100000D5100000D9100000D910000074
S11300F0D9100000D9100000D9100000D910000058
S1130100DFF8D004016821F480410160DFF8C814ED
S11301100A6842F480420A60DFF8C0140A6822F4D4
S113012080420A60026822F480520260DFF8A02450
S1130130136843F4805313600B6843F480530B60DB
S1130140036823F400530360136843F400531360FB
S11301500B6843F400530B60036823F4806303606B
S1130160136843F4806313600B6843F480630B608B
S1130170036823F400630360136843F400631360AB
S11301800B6843F400630B60036823F4007303609B
S1130190106840F400701060086840F40070086053
S11301A0106840F400601060106840F40070106043
S11301B070472DE9F041044600250826DFF8208425
S11301C0DFF80C74386820F4805038603868C00454
S11301D0FCD4200638684CBF40F4005020F4005092
S11301E0386064001420C046C046D8F800006D0092
S11301F0400448BF45F00105386840F48050386039
S11302003868C004FCD54620C046C046761ED9D105
S1130210E8B2BDE8F0812DE9F04104464FF40470E2
S11302200D46B4FBF0F716465321384600F06AF940
S113023030194FF40471B0FBF1F8474503D0552150
S1130240404600F05FF933462A462146012000F07B
S113025074F83946832000F037F9474504D0414605
S1130260BDE8F04186202FE1BDE8F081F8B5D84F14
S11302700446386820F4806038600D461646322003
S1130280C046C0462046FFF794FF36B1FF20FFF773
S113029090FF761E05F8010BF8D1386840F48060B1
S11302A038604FF4FA70BDE8F24000F09BB92DE9D4
S11302B0F04182B004468846164601226946D7209A
S11302C0FFF7D4FF9DF800000006F6D5C04F38684C
S11302D020F4806038603220C046C0460B20FFF70F
S11302E068FF4FF40470B4FBF0F5A804000EFFF7A8
S11302F060FF05EB4510A4EB0010000A40EA8500FE
S1130300C0B2FFF756FFA4EB0510C0B2FFF751FFD0
S1130310FF20FFF74EFF36B1FF20FFF74AFF761E9E
S113032008F8010BF8D1386840F4806038604FF465
S1130330FA70C046C046BDE8F3812DE9F14F9046FE
S113034000284FF40470B1FBF0F000EB4012994622
S11303500CBFD4258425A1EB0216DFF884A29C4CA3
S1130360B9F1000F00F09780206820F480602060CD
S11303703220C046C046D720FFF71BFFFF20FFF7FF
S113038018FF0746206840F4806020604FF4FA703C
S1130390C046C0463806E7D5206820F48060206057
S11303A03220C046C0462846FFF703FFFF20FFF770
S11303B000FF3004000EFFF7FCFEF0B2FFF7F9FE79
S11303C0D42D12BFD62DFF20FFF7F3FE009868BB93
S11303D0FF2500274FF0080B206820F48050206090
S11303E02068C004FCD4280620684CBF40F40050A8
S11303F020F4005020606D001420C046C046DAF896
S113040000007F00400448BF47F00107206840F423
S1130410805020602068C004FCD54620C046C046F9
S1130420BBF1010BD8D188F8007023E098F8005094
S11304300827206820F4805020602068C004FCD481
S1130440280620684CBF40F4005020F4005020607F
S11304506D001420C046C046DAF80000206840F45D
S1130460805020602068C004FCD54620C046C046A9
S11304707F1EDED1761C4FF40470B6FBF0F000EB67
S11304804011B6EB0110A9F1010908F101080CD0E3
S1130490B9F1000F9AD1206840F4806020604FF4D5
S11304A0FA70BDE8F24F00F09DB8206840F4806017
S11304B0206000264FF4FA70C046C0460098002819
S11304C014BF8725D6254BE770B582B004460D4688
S11304D001226946D720FFF7C9FE9DF800000006F7
S11304E0F6D53B4E306820F4806030603220C04640
S11304F0C0462046FFF75DFEA804000EFFF759FE34
S1130500A8001CE070B582B004460D46012269467D
S1130510D720FFF7ABFE9DF800000006F6D52C4E61
S1130520306820F4806030603220C046C0462846DF
S1130530FFF73FFEA004000EFFF73BFEA000C0B291
S1130540FFF737FEFF20FFF734FE306840F4806089
S113055030604FF4FA70C046C04673BD38B51C4CC9
S1130560206820F4806020604FF6DC752846C04681
S1130570C0462846C046C0462846C046C04628460F
S1130580C046C0462846C046C0462846C046C04667
S11305909F20FFF70EFEFF20FFF70BFE1F280AD156
S11305A0FF20FFF706FE262805D1FF20FFF701FEF6
S11305B008B9002500E0FF25206840F48060206031
S11305C04FF4FA70C046C046284632BD0000000011
S11305D01034034010300340103103401032034004
S11305E010330340704730B142F6310100BF491E59
S11305F0FCD1401EF8D1704770B58E4D06002868B6
S113060040F040000C4628600FD02046FFF7EBFF77
S1130610286820F0400028602046FFF7E4FF28689F
S113062040F04000761E2860EFD170BD30B585B033
S113063000F006F9814CE06840F40070E060C821E5
S1130640E06840F48060E060E06840F40060E060EE
S1130650E06840F48050E060E06840F40050E060FE
S1130660606840F001006060206840F00200206093
S1130670206840F004002060206940F08000206180
S11306800120FFF7B9FF4FF47A70FFF7ACFFFFF7D3
S113069065FF48B14FF48040016881F30888664AD9
S11306A0106040688047FEE701226946FFF7FFFDBE
S11306B09DF8000088B1C8210220FFF79DFF4FF488
S11306C07A70FFF790FF4FF48040016881F3088847
S11306D0594A106040688047FEE7C8210320FFF7AD
S11306E08BFF40F6B8352846FFF77DFF00F0FAF897
S11306F078B9C8210420FFF77FFF2846FFF773FF6E
S113070000F0FEF8C8210520FFF776FF2846FFF722
S11307106AFF00F0E7F801287CD1C8210620FFF722
S11307206BFF2846FFF75FFFFFF718FF48B14FF450
S11307308040016881F308883F4A10604068804720
S1130740FEE7C8210720FFF757FF2846FFF74BFFB6
S1130750012269460020FFF7AAFD9DF80000002849
S113076048D1C8210820FFF747FF2846FFF73BFF81
S113077000F0DEF878B9C820FFF735FF206920F0D3
S1130780400020614FF4FA60FFF72DFF206940F02C
S113079040002061EFE7FF208DF800008DF8010094
S11307A0022269460020FFF736FD206940F0400030
S11307B020610A254FF47A70FFF715FF206920F0B5
S11307C0400020614FF47A70FFF70DFF206940F07C
S11307D040006D1E2061EDD141F28830FFF703FF28
S11307E04FF48040016881F30888134A1060406820
S11307F08047FEE7C820FFF7F6FE206920F040009E
S1130800206141F28830FFF7EEFE206940F040009D
S11308102061EFE74FF47A710520FFF7EDFE4FF406
S11308208040016881F30888034A1060406880476B
S1130830FEE700001034034008ED00E000340340FC
S113084080B500F017F90948016821F0C001016082
S11308500748016821F0C00101600648016841F0C1
S1130860C0010160BDE80140FFF74ABC10300340FD
S11308701034034010320340DFF800F005E0FF1F9E
S1130880DFF800F0C1E0FF1F30B142F6310100BFD4
S1130890491EFCD1401EF8D17047704A136843F0DA
S11308A040031360E8B141B10B4642F6310C00BF7E
S11308B0BCF1010CFBD15B1EF7D1136823F040039C
S11308C0136041B10B4642F6310C00BFBCF1010C80
S11308D0FBD15B1EF7D1136843F04003401E136045
S11308E0E1D170474FF4804050F8041B11F1010F1F
S11308F001D000207047B0F5003FF5D301207047C8
S113090080B572B600214FF48040FFF7B5FF002197
S113091044F20400FFF7B0FF00214FF40040FFF75A
S1130920ABFF002148F20400FFF7A6FF62B601BD49
S11309302DE9F04F83B000208DF808006426DFF81D
S11309402081DFF820B1484F444C206880F04000FB
S113095020600A20FFF747FE02A9384600F04CF950
S1130960814619F1010F0FD19DF8080028BBB0464C
S1130970206880F0800020606420FFF734FEB8F126
S11309800108F5D1012071E019F1060F04BF9DF8AB
S11309900800002811D1206840F04000206040F693
S11309A0B8342046FFF770FFC8210920FFF775FF10
S11309B02046FFF769FF002058E00A2000900098C5
S11309C0704300900098411E009140B10A200190AC
S11309D0019800281CBF0198401EF8D1F2E772B6B6
S11309E00025A9F5804A04E0E95BFFF749FFAD1C47
S11309F0EDB29DF80800854208DADA45F7D205EB36
S1130A00090040452CBF01220022EDE70A20009096
S1130A100098704300900098411E009140B10A2054
S1130A200190019800281CBF0198401EF8D1F2E7FC
S1130A3062B60A2000900098704300900098411E0E
S1130A40002800913FF481AF0A2001E00198401E84
S1130A50019001980028F9D1F0E700001034034018
S1130A6000000C2005D00F0080E3FF1F03B0BDE899
S1130A70F08F000010B44448444A0168444C1140CB
S1130A80016044490B681A400A60434A136843F4FE
S1130A901C4343F01F0313600023236044683F4B4F
S1130AA01C4044604C6823404B6040F2BF345368A0
S1130AB023435360836823F00E0383608B6823F021
S1130AC00E038B60936843F00E039360C468344B49
S1130AD01C40C460CC682340CB60D36843F47E439D
S1130AE043F00803D3602F4B1C6804F0FE041C6021
S1130AF02D4B04691C4004610C6923400B6113698C
S1130B0043F4FC4343F0C003136143699B089B0017
S1130B1043614B699B089B004B61536943F003039A
S1130B2053618369DB08DB0083618B69DB08DB00CD
S1130B308B61936943F007039361036A9B089B00ED
S1130B4003620B6A9B089B000B62116A41F003016C
S1130B501162C168C908C900C16014490B6843F037
S1130B6007030B60D368DB08DB00D360436923F021
S1130B7004034361886840F004008860506920F0F1
S1130B800400506110BC704700300340E063FFFF75
S1130B9000350340003403400032034040FCFFFFB3
S1130BA0F701FFFF803503403F81FFFF0C31034015
S1130BB002780021A2F1300CBCF10A0F3CBF1101F4
S1130BC0C9B2A2F14103062B03D2373A01EB021159
S1130BD0C9B24078A0F130030A2B02D2411830394F
S1130BE0C9B2A0F14102062A03D24018A0F137018C
S1130BF0C9B20846704700002DE9F04D0D4682B099
S1130C000026804600270024B346B2462E7006E034
S1130C106846FFF7CDFFC01B841E2C7002260020FF
S1130C20ADF800000222364800686946FFF73FFB32
S1130C30334833490068801C08609DF80000FF2891
S1130C400AD19DF80100FF280CD1002028704FF034
S1130C50FF3B5846BDE8F68D0D2804BF9DF8010002
S1130C600A28F6D0F6B28EB1072E05DA6846FFF7E9
S1130C709FFF50445FFA80FA072ED0D8DFE806F0D1
S1130C800605161818182633C9E7C1E79DF80000B1
S1130C90532805D19DF80100A0F13007FFB20126C9
S1130CA00FB1042FBBDB00270026B8E74FF0000B81
S1130CB06846FFF77DFFB91B891CC900884083443F
S1130CC0B81B801C08BF0526761CA8E7641EE4B286
S1130CD004B907266846FFF76BFF88F80000002078
S1130CE008F8010F9BE76846FFF762FF80F0FF00FA
S1130CF0504594D0002028706FF00500BDE8F68DB3
S1130D0000E0FF1F604E00001CB40022009211B1ED
S1130D10012913D04DE04FF08042136803F0FD0326
S1130D201360136843F001031360AA23126801924D
S1130D3041F25052138040F6A82308E01E4A0023D3
S1130D401360AA23126801921C4A13801C4B552479
S1130D501C8080241480AA24148055221A803022F6
S1130D60028002881207FCD5009A5AB902889206BA
S1130D7044BF4FF0FF32009202881206F4D50122DC
S1130D800092F1E711B1012910D012E04FF0804236
S1130D904FF6FE71106808401060106840F00200C1
S1130DA0106010680190009816BC7047024A012038
S1130DB0F6E716BC61E0000000000E20A80A0C2033
S1130DC054050C203CB40023009312B1012A15D021
S1130DD052E04FF080434FF6FD751C682C401C60B8
S1130DE040F6A8251C6844F001041C60AA241B6872
S1130DF0019341F250531C80552409E01B4B1C4DB8
S1130E0000241C60AA241B6801931A4B1C805524DF
S1130E102C8001F08005A0241C8001804FF0FF335A
S1130E200AE00488A40648BF0093048804F0800400
S1130E30AC4204BF01240094009C002CF1D012B1F8
S1130E40012A10D018E04FF080434FF6FE71186865
S1130E5008401860186840F0020018601868019093
S1130E60009836BC7047014B0120F6E700000E20C5
S1130E7054050C20A80A0C2036BC6FF00100704702
S1130E802448254901608322244901600020244923
S1130E90087000211E480174012101758121017629
S1130EA0017720490A7000220A725C220A740278CF
S1130EB042F00202027002799207FCD500220A7500
S1130EC004220A7609220A77017841F010010170A0
S1130ED00179C906FCD5017841F04001017001781F
S1130EE0027902F0E00201F0E0018A42F7D140F217
S1130EF0FF320D4801688905890D914206D00B49DE
S1130F000B4A8A60006808800020886070470000EF
S1130F1000000140001C014051E5CC1AAE1A33E533
S1130F2008100140200001400001004004E002409C
S1130F3054E5CC1A19E050F8041BCB0744BFA9F1BF
S1130F4001035918121F0023042A41F8043BF9D263
S1130F505FEA827C0B4604D54FF0000CA1F800C078
S1130F609B1CD10744BF0021197050F8042B002AA0
S1130F70E1D1704710B450F8041B79B1026843689A
S1130F8012180830DC0744BFA9F10104E31852F831
S1130F90044B43F8044B091FF9D1ECE710BC70472C
S1130FA010B5074979441831064C7C44163404E0E2
S1130FB00A68081D511888470146A142F8D110BD9E
S1130FC008000000280000006DFFFFFFF40100008E
S1130FD080E3FF1F000000009DFFFFFF7C01000075
S1130FE024FDFFFF00E0FF1F000000000120C046B9
S1130FF0002801D0FFF7D4FF0020C046C046FFF709
S113100015FB00F000F800F001B800000746384670
S113101000F002F8FBE70000202109032631182024
S1131020ABBEF9E70148804701480047810E000044
S113103035100000C046C046C046C046FFF7D6FF84
S1131040FFF7FEBFFFF7FEBFFFF7FEBFFFF7FEBFD0
S1131050FFF7FEBFFFF7FEBFFFF7FEBFFFF7FEBFC0
S1131060FFF7FEBFFFF7FEBFFFF7FEBFFFF7FEBFB0
S1131070FFF7FEBFFFF7FEBFFFF7FEBFFFF7FEBFA0
S1131080FFF7FEBFFFF7FEBFFFF7FEBFFFF7FEBF90
S1131090FFF7FEBFFFF7FEBFFFF7FEBFFFF7FEBF80
S11310A0FFF7FEBFFFF7FEBFFFF7FEBFFFF7FEBF70
S11310B0FFF7FEBFFFF7FEBFFFF7FEBFFFF7FEBF60
S11310C0FFF7FEBFFFF7FEBFFFF7FEBFFFF7FEBF50
S10F10D0FFF7FEBFFFF7FEBFFFF7FEBFF7
S11340004024002049FE01006DFE010071FE010004
S113401075FE010079FE01007DFE01000000000034
S113402000000000000000000000000081FE01000C
S113403085FE01000000000089FE01008DFE0100E4
S113404091FE010095FE010099FE01009DFE010014
S1134050E1FC0100A5FE0100459F0000918A0000DB
S11340609BFD0100F93B0100B9FE010005FF0100C1
S113407005FF0100A3980000C1FE010005FF010037
S113408005FF0100C5FE0100C9FE010005FF010096
S113409005FF010005FF010005FF0100CDFE010041
S11340A0D1FE010099FD0100D9FE010005FF0100C8
S11340B0DDFE0100E1FE0100E5FE0100E9FE010074
S11340C005FF010005FF0100A3FD0100ADFD010096
S11340D005FF010005FF0100F5FE0100F9FE0100E6
S11340E0FDFE010001FF010005FF010005FF0100C5
S11340F005FF010005FF010005FF010005FF0100A8
S113410038B58D4C607F012837D18C4D0FF26C018E
S1134110284604F0D2FD012803DB0120607602204A
S11341201CE083A1284604F0C8FD012803DB01201C
S11341306076002012E00FF24C01284604F0BDFD29
S1134140012802DB0120607608E07AA1284604F009
S1134150B4FD012803DB012060760320E075002014
S11341606077A07E012808D10FF2200004F00CFF34
S11341702846BDE8324004F007BF31BD454E5445E2
S113418052000000444F574E000000000D0A484DF5
S113419049202D3E20000000D0B50F2884B00446ED
S11341A043D8DFE800F0080C1014181C2024282B36
S11341B02E3134373A3D14220FF2D40132E0142266
S11341C00FF2E0012EE014220FF2EC012AE0142297
S11341D00FF2F80126E014220FF2041122E0142257
S11341E00FF210111EE014220FF21C111AE0142217
S11341F00FF2281116E01422514913E014225149F8
S113420010E0142250490DE0142250490AE014220F
S11342104F4907E014224F4904E014224E4901E0BB
S113422014224E494E4804F027FF4E480068E040EF
S1134230C00706D54A48592141736521817373210A
S1134240C17304EB44004000474E3B4F00F52C5033
S113425006223146503005F03CF8307973783278D4
S113426042490290F0780190B0780090384605F009
S1134270FBF91021384604F0C1FD0CB17F203870E1
S11342800F2CBCBF7E20F8730020387704B0D0BD5B
S11342904C4F572050555249465920203A204E6FD2
S11342A0000000004C4F5720574153544520202014
S11342B03A204E6F000000004259504153532041B0
S11342C04C41524D3A204E6F000000004341422EB3
S11342D054454D50202020203A204E6F000000000D
S11342E04C45414B41474520202020203A204E6F29
S11342F00000000057415354452056414C56452078
S11343003A204E6F00000000434950204C2E4C458B
S113431056454C203A204E6F000000005041452085
S1134320434F4D4D204552523A204E6F000000003D
S113433055500000455343005C1E0020781B0020AC
S113434028C201003CC20100D8650000EC650000F1
S11343500066000014660000286600003C66000049
S1134360B81E0020E01F00206811002050660000E5
S1134370F0B5DFF8404C83B0207D972802F25680D8
S1134380DFE810F09800A900BC00CF00DE00F100C7
S11343902C013B014C015F01720185019401A301D1
S11343A0B201C101DA015410F0010102100221022C
S11343B0340247025A026D0280029302A602B90235
S11343C0CC02DF02F202050318032B033E03510360
S11343D0640377038A03A003B303C603D903EC037E
S11343E0FB031C04420469049104B504D904FD04CC
S11343F02105450567058905AB05CD05EE051006C4
S113440014061A063C065E0680069D06BA06C40615
S11344101E073D07610770077F078E079D07AC07DE
S1134420BB07CA07D907E807F707060815082408D1
S113443033084208510860086F087E088D089C08FC
S1134440AB08BA08C9085410550967097B099409CF
S1134450E609FD09160A2F0A480A610A7A0A960A29
S1134460B40AC50AD80AF00A0A0B280B6C0BA40B71
S1134470180CB20DC40DE00D060E200E410E620E96
S11344807A0EA50EB40EB60EB80EBA0EBC0EBE0E43
S1134490C00EC20EC60EF80E3A0F6A0F990FC80F5F
S11344A0F70F2610C50BDA0BE90BFC0BD808FD0837
S11344B0370946091422DFF8681CDFF8680C04F099
S11344C0DBFD1422DFF8601C204604F0D5FD7E20BD
S11344D0E07301F0A9BF1422DFF8441CDFF8440C98
S11344E004F0CAFD1422DFF8441C204604F0C4FD85
S11344F07F2020707E20E07301F096BF1422DFF845
S1134500201CDFF8200C04F0B7FD1422DFF8201C77
S1134510204604F0B1FD7F2020707E20E07301F07E
S113452083BF1422DFF8F81BDFF8F80B04F0A4FDB6
S11345301422DFF8001C204604F09EFD01F072BF37
S11345401422DFF8DC1BDFF8DC0B04F095FD1422E9
S1134550DFF8E41B204604F08FFD7F2020707E20CE
S1134560E07301F061BF1422DFF8D01BDFF8B40B55
S113457004F082FD1422DFF8C81B204604F07CFD01
S1134580207E032827D8DFE800F00209121CCE2081
S1134590E076DFF8B00B0078A0711CE0CF20E07665
S11345A02A20A071DFF89C0B4078E07113E0D02042
S11345B0E0762A20A071E071DFF8880B8078207201
S11345C009E0D120E0762A20A071E0712072DFF8A2
S11345D0740BC0786072012001F027BF1422DFF849
S11345E05C1BDFF8400B04F047FD1422DFF8581B76
S11345F0204604F041FD01F017BF1422DFF84C1BE4
S1134600DFF8200B04F038FD1422DFF8441B2046A9
S113461004F032FD7E20E07301F006BF1422DFF8BF
S11346202C1BDFF8000B04F027FD1422DFF8241BF9
S1134630204604F021FD7F2020707E20E07301F0ED
S1134640F3BE1422DFF8041BDFF8D80A04F014FDCB
S11346501422DFF8041B204604F00EFD7F20207096
S11346607E20E07301F0E0BE1422DFF8E01ADFF8E8
S1134670B40A04F001FD1422DFF8E01A204604F025
S1134680FBFC7F2020707E20E07301F0CDBE14225D
S1134690DFF8B81ADFF88C0A04F0EEFC1422DFF815
S11346A0C01A204604F0E8FC01F0BCBE1422DFF876
S11346B0B41ADFF8700A04F0DFFC1422DFF8A81A39
S11346C0204604F0D9FC01F0AFBE1422DFF89C1A96
S11346D0DFF8500A04F0D0FC1422DFF8941A2046C4
S11346E004F0CAFC01F0A0BE1422DFF8881ADFF837
S11346F0340A04F0C1FC1422DFF87C1A204604F0CA
S1134700BBFC01F091BE1422DFF8701ADFF8140A22
S1134710DFF86C7A04F0B0FC042239460A2004F075
S1134720D8FD3A68E6A1204604F09EFF10212046F9
S113473004F064FB01F078BE1422DFF8481ADFF8B5
S1134740E40904F099FCDFF8400ADFF8401AD0E9E4
S11347500023204604F088FF1021204604F04EFB7D
S113476001F062BE1422DFF8281ADFF8B80904F059
S113477083FC1422DFF81C1A204604F07DFC7E2002
S1134780E07301F051BE1422DFF8041ADFF8940933
S113479004F072FC1422DFF8001A204604F06CFCCA
S11347A001F040BE1422DFF8F419DFF8780904F0B0
S11347B063FC1422DFF8E819204604F05DFC7E2037
S11347C0E07301F031BE1422DFF8D019DFF8540988
S11347D004F052FC1422DFF8CC19204604F04CFCFF
S11347E07F2020707E20E07301F01EBE1422DFF8CB
S11347F0AC19DFF8300904F03FFC1422DFF8A819E3
S1134800204604F039FC7F2020707E20E07301F004
S11348100BBE1422DFF88419DFF8080904F02CFC1D
S11348201422DFF88819204604F026FC7F2020702B
S11348307E20E07301F0F8BD1422DFF86019DFF880
S1134840E40804F019FC1422DFF86419204604F08B
S113485013FC7F2020707E20E07301F0E5BD14225C
S1134860DFF83819DFF8BC0804F006FC1422DFF87E
S11348704419204604F000FC7F2020707E20E07361
S113488001F0D2BD1422DFF81419DFF8980804F0FF
S1134890F3FB1422DFF82019204604F0EDFB7F20FF
S11348A020707E20E07301F0BFBD1422DFF8EC1805
S11348B0DFF8700804F0E0FB1422DFF8001920464A
S11348C004F0DAFB7F2020707E20E07301F0ACBDA1
S11348D01422DFF8C818DFF84C0804F0CDFB1422CA
S11348E0DFF8B81D204604F0C7FB7F2020707E202F
S11348F0E07301F099BD1422DFF8A018DFF8240852
S113490004F0BAFB1422DFF8981D204604F0B4FB2F
S11349107F2020707E20E07301F086BD1422DFF832
S11349207C18DFF8000804F0A7FB1422DFF8741DDC
S1134930204604F0A1FB7F2020707E20E07301F06C
S113494073BD1422DFF85418DFF8D80704F094FB81
S11349501422DFF8541D204604F08EFB7F202070C3
S11349607E20E07301F060BD1422DFF83018DFF818
S1134970B40704F081FB1422DFF89C1D204604F0E8
S11349807BFB7F2020707E20E07301F04DBD14225C
S1134990DFF80818DFF88C0704F06EFB1422DFF848
S11349A07C1D204604F068FB7F2020707E20E0738D
S11349B001F03ABD1422DFF8E417DFF8680704F0C9
S11349C05BFB1422DFF8581D204604F055FB7F20C2
S11349D020707E20E07301F027BD1422DFF8BC179D
S11349E0DFF8400704F048FB1422DFF8381D2046A6
S11349F004F042FB7F2020707E20E07301F014BDA0
S1134A001422DFF89817DFF81C0704F035FB142292
S1134A10DFF8141D204604F02FFB7F2020707E2039
S1134A20E07301F001BD1422DFF87017DFF8F4061B
S1134A3004F022FB1422DFF8F41C204604F01CFBD3
S1134A407F2020707E20E07301F0EEBC1422DFF89A
S1134A504C17DFF8D00604F00FFB1422DFF8D01C4B
S1134A60204604F009FB7F2020707E20E07301F0D3
S1134A70DBBC1422DFF82417DFF8A80604F0FCFAE4
S1134A801422DFF8B01C204604F0F6FA7F202070D0
S1134A907E20E07301F0C8BC1422DFF80017DFF8B1
S1134AA0840604F0E9FA1422DFF88C1C204604F092
S1134AB0E3FA7F2020707E20E07301F0B5BC00BFD4
S1134AC0256400001422DFF8D416DFF8580604F039
S1134AD0D3FA1422DFF8641C204604F0CDFA7F20B8
S1134AE020707E20E07301F09FBC1422DFF8AC1626
S1134AF0DFF8300604F0C0FA1422DFF8441C204624
S1134B0004F0BAFA7F2020707E20E07301F08CBCA0
S1134B101422DFF88816DFF80C0604F0ADFA14222C
S1134B20DFF8201C204604F0A7FA7F2020707E20A6
S1134B30E07301F079BC1422DFF86016DFF8E405B5
S1134B4004F09AFA1422DFF8001C204604F094FAC8
S1134B507F2020707E20E07301F066BC1422DFF811
S1134B603C16DFF8C00504F087FA1422DFF8DC1BDA
S1134B70204604F081FA01F055BC1422DFF8DC1D54
S1134B80DFF8A00504F078FA1422DFF8D41D2046DB
S1134B9004F072FADFF8AC050178A1714178E17193
S1134BA081782172C0786072207E032801F23C84EF
S1134BB0DFE810F0890A25004C0074001422DFF8A5
S1134BC0CC1DDFF8600504F057FA1422DFF8C01D8D
S1134BD0204604F051FADFF86C050178A1714178A0
S1134BE0E17181782172C0786072207E032801F21D
S1134BF01B84DFE810F0680A04002B005300CF2068
S1134C00E076012001F011BC1422DFF8881DDFF8E2
S1134C10140504F031FA1422DFF8741D204604F060
S1134C202BFADFF820050178A1714178E1718178D0
S1134C302172C0786072207E032801F2F583DFE8D8
S1134C4010F0420A040005002D00D8E7D020E076D9
S1134C50012001F0EABB1422DFF8F81DDFF8C404D8
S1134C6004F00AFA1422DFF8F01D204604F004FAD6
S1134C70DFF8D0040178A1714178E1718178217263
S1134C80C0786072207E032801F2CE83DFE810F042
S1134C901B0A050004000600D8E7B0E7D120E0763F
S1134CA0012001F0C2BB1422DFF8F01DDFF8740408
S1134CB004F0E2F91422DFF8E81D204604F0DCF9E0
S1134CC0DFF880040178A1714178E1718178217263
S1134CD0C0786072207E032801F2A683DFE810F01A
S1134CE0F309060005000400D8E7AFE787E71422BC
S1134CF0DFF8B01DDFF82C0404F0BEF91422DFF84D
S1134D00A01D204604F0B8F9DFF838040178A17139
S1134D104178E17181782172C0786072207E032825
S1134D2001F28283DFE810F0CF09060005000400D9
S1134D30B4E78BE763E71422DFF8F41DDFF8E4033C
S1134D4004F09AF91422DFF8EC1D204604F094F9DB
S1134D50DFF8F0030178A1714178E1718178217263
S1134D60C0786072207E032801F25E83DFE810F0D1
S1134D70AB0906000500040090E767E73FE714224B
S1134D80DFF8201EDFF89C0304F076F91422DFF824
S1134D90181E204604F070F9DFF8A8030178A17109
S1134DA04178E17181782172C0786072207E032895
S1134DB001F23A83DFE810F08709060005000400D9
S1134DC06CE743E71BE71422DFF8E01DDFF8540328
S1134DD004F052F91422DFF8D81D204604F04CF9EF
S1134DE0DFF860030178A1714178E1718178217263
S1134DF0C0786072207E032801F21683DFE810F089
S1134E00630906000500040048E71FE7F7E61422DB
S1134E10DFF8081EC34804F02FF91422DFF8001E3F
S1134E20204604F029F9C7480178A1714178E1715D
S1134E3081782172C0786072207E032801F2F482A6
S1134E40DFE810F0410906000500040026E7FDE64E
S1134E50D5E61422DFF8141EB24804F00DF914222A
S1134E60DFF80C1E204604F007F9B6480178A1715A
S1134E704178E17181782172C0786072207E0328C4
S1134E8001F2D282DFE810F01F09060005000400D9
S1134E9004E7DBE6B3E61422DFF8101EA14804F0B1
S1134EA0EBF81422DFF8081E204604F0E5F8A548C4
S1134EB00178A1714178E17181782172C0786072C2
S1134EC0207E032801F2B082DFE810F0FD0806001E
S1134ED005000400E2E6B9E691E61422DFF8081EB4
S1134EE0904804F0C9F81422DFF8001E204604F0AC
S1134EF0C3F894480178A1714178E17181782172F5
S1134F00C0786072207E032801F28E82DFE810F000
S1134F10DB08060005000400C0E697E66FE61422ED
S1134F20DFF8CC1D7F4804F0A7F81422DFF8C41D75
S1134F30204604F0A1F883480178A1714178E17119
S1134F4081782172C0786072207E002801F0BB80D5
S1134F5001283FF454AE03283FF4A0AE01F064BA34
S1134F601422DFF8281E6F4804F086F81422DFF8B4
S1134F70201E204604F080F872480178A17141781F
S1134F80E17181782172C0786072207E032801F279
S1134F904B82DFE810F098080600050004007DE667
S1134FA054E62CE61422DFF8EC1DBBE71422DFF8EC
S1134FB0E81DB7E75C1E00201422DFF8E01D594805
S1134FC004F05AF81422DFF8D81D204604F054F8EF
S1134FD05C480178A1714178E17181782172C078CF
S1134FE06072207E032801F21F82DFE810F06C0853
S1134FF006000500040051E628E600E61422DFF866
S1135000A41D484804F038F81422DFF89C1D2046FB
S113501004F032F84B480178A1714178E17181784C
S11350202172C0786072207E032801F2FD81DFE8DE
S113503010F04A080600050004002FE606E6DEE547
S11350401422DFF8681D374804F016F81422DFF83C
S1135050601D204604F010F83A480178A1714178A7
S1135060E17181782172C0786072207E032801F298
S1135070DB81DFE810F028080600050004000DE6D7
S1135080E4E5BCE51422DFF87C1E264803F0F4FFB7
S11350901422DFF8741E204603F0EEFF294801783D
S11350A0A1714178E17181782172C0786072207EAB
S11350B0002801F0088002283FF4C8AD4BE7142211
S11350C0DFF87C1E174803F0D7FF1422DFF8381EE0
S11350D0204603F0D1FF1B480178A1714178E171AA
S11350E081782172C0786072207E002800F0EB87FE
S11350F002283FF4ABAD2EE71422DFF8881E0948DE
S113510003F0BAFF1422DFF8801E11E71422DFF83F
S11351107C1E044803F0B0FF1422DFF86C1E07E77E
S113512064C20100B81E002078C201008CC20100D4
S1135130A0C20100B4C20100C8C20100DCC2010067
S1135140F0C20100E81E002004C3010018C30100DE
S11351502CC3010040C3010054C3010068C3010013
S11351607CC3010090C30100A4C30100B8C30100C3
S1135170CCC30100E0C30100F4C3010008C4010072
S1135180201F00201CC40100781C002030C4010032
S113519038C401004CC4010060C4010074C401009F
S11351A088C401009CC40100B0C40100C4C401004F
S11351B0D8C40100ECC4010000C5010014C50100FD
S11351C01422DFF8701EDFF8700E03F055FF14226E
S11351D0DFF8681E204603F04FFFDFF8640E017805
S11351E0A1714178E17181782172C0786072207E6A
S11351F0002800F0688702283FF428ADABE61422AB
S1135200DFF84815DFF8300E03F036FF1422DFF81C
S1135210341E204603F030FFDFF8240E0178A1711C
S11352204178E17181782172C0786072207E032810
S113523001F2FA80DFE810F04707060005000400D9
S11352402CE503E5DBE41422DFF81017DFF8E80DA2
S113525003F012FF1422DFF8901E204603F00CFF27
S113526001F0E2B81422DFF82417DFF8CC0D03F0C4
S113527003FF1422DFF8701E204603F0FDFE01F048
S1135280D3B81422DFF80C17DFF8AC0D03F0F4FEEA
S11352901422DFF8541E204603F0EEFE01F0C4B8D9
S11352A01422DFF8B017DFF8900D03F0E5FE1422A6
S11352B0DFF8341E204603F0DFFE01F0B5B81422F7
S11352C0DFF8D817DFF8700D03F0D6FE1422DFF8EC
S11352D0181E204603F0D0FE01F0A6B81422DFF811
S11352E0C417DFF8540D03F0C7FE1422DFF8F81DCD
S11352F0204603F0C1FE01F097B81422DFF83018FD
S1135300DFF8340D03F0B8FE1422DFF8DC1D20466C
S113531003F0B2FE01F088B81422DFF88818DFF831
S1135320180D03F0A9FE1422DFF8BC1D204603F07B
S1135330A3FE01F079B81422DFF87018DFF8F80C36
S113534003F09AFE1422DFF8A01D204603F094FE19
S113535001F06AB81422DFF8C418DFF8DC0C03F09B
S11353608BFE1422DFF8801D204603F085FE01F039
S11353705BB81422DFF8F418DFF8BC0C03F07CFEF1
S11353801422DFF8641D204603F076FE01F04CB8C9
S11353901422DFF81819DFF8A00C03F06DFE1422B4
S11353A0DFF8441D204603F067FE01F03DB81422E7
S11353B0DFF83419DFF8800C03F05EFE1422DFF806
S11353C0281D204603F058FE01F02EB81422DFF801
S11353D0081EDFF8640C03F04FFE1422DFF8081DEA
S11353E0204603F049FE01F01FB81422DFF89C198F
S11353F0DFF8440C03F040FE1422DFF8EC1C2046D6
S113540003F03AFE01F010B81422DFF88819DFF82F
S1135410280C03F031FE1422DFF8CC1C204603F0E4
S11354202BFE01F001B81422DFF86C19DFF8080C28
S113543003F022FE1422DFF8B01C204603F01CFE09
S113544000F0F2BF1422DFF85419DFF8EC0B03F07C
S113545013FE1422DFF8901C204603F00DFE00F02A
S1135460E3BF1422DFF83C19DFF8CC0B03F004FE91
S11354701422DFF8741C204603F0FEFD00F0D4BFB4
S11354801422DFF82819DFF8B00B03F0F5FD14221D
S1135490DFF8541C204603F0EFFD00F0C5BF1422D2
S11354A0DFF8601ADFF8900B03F0E6FD1422DFF852
S11354B0381C204603F0E0FD00F0B6BF1422DFF8EC
S11354C0801ADFF8740B03F0D7FD1422DFF8181CE0
S11354D0204603F0D1FD00F0A7BF1422DFF8FC1C26
S11354E0DFF8540B03F0C8FD1422DFF8FC1B204640
S11354F003F0C2FD00F098BF1422DFF8E41CDFF8CB
S1135500380B03F0B9FD1422DFF8DC1B204603F04E
S1135510B3FD00F089BF1422DFF8181BDFF8180B65
S113552003F0AAFD1422DFF8C01B204603F0A4FDFB
S113553000F07ABF1422DFF8AC1CDFF8FC0A03F099
S11355409BFD1422DFF8A01C204603F095FD0120EA
S11355502077DFF8EC0A017861714178A1718178D4
S11355602172C0786072207E032800F25F87DFE832
S113557010F03400040036003800CE2036E0142247
S1135580DFF8681CDFF8B00A03F076FD1422DFF8B8
S1135590601C204603F070FDDFF8A40A01786171F5
S11355A04178A1712D21E17181782172C1786172F4
S11355B02D21A1720179E1724079207301202077B5
S11355C0207E052800F23287DFE810F0070006008D
S11355D009000B000D000F00CFE7CD2006E0D0201E
S11355E004E0D12002E0D32000E0D420E07600F0F3
S11355F01DBF1422DFF8FC1BDFF83C0A03F03CFD5E
S11356001422DFF8E41A204603F036FD00F00CBF44
S11356101422DFF8241EDFF8200A03F02DFD1422E3
S1135620DFF8C41A204603F027FD00F0FDBE142263
S1135630DFF8081EDFF8000A03F01EFD1422DFF86D
S1135640001E204603F018FD002020777E2000F085
S113565049BC1422DFF8E41DDFF8DC0903F00CFD7B
S11356601422DFF8E01D204603F006FD0020207719
S11356707F2020707E2000F035BC1422DFF8BC1D92
S1135680DFF8B40903F0F8FC1422DFF8BC1D20464F
S113569003F0F2FC0020207773E100BF28C501006D
S11356A03CC5010050C5010064C501001422DFF8A7
S11356B09C1DDFF8840903F0DFFC1422DFF8901D41
S11356C0204603F0D9FC00202077DFF8880D00780D
S11356D000F00101012903DB482161706921A170F7
S11356E000F00201012903DB482161716921A171E4
S11356F000F00401012903DB482161726921A172D0
S113570000F008000128C0F29186482060736920E7
S1135710A07300F08BBE00BF78C501008CC50100EA
S1135720A0C50100B4C50100C8C50100DCC5010065
S1135730F0C5010004C6010018C601002CC6010012
S113574040C6010054C6010068C601007CC60100C1
S11357501422DFF8041DDFF8E00803F08DFC0020BC
S113576020771422DFF8F41C204603F085FC7E2009
S1135770E073DFF8EC0C007800F0010094E01422F0
S1135780DFF8D41CDFF8B00803F076FC00202077A3
S11357901422DFF8D01C204603F06EFC7F2020701A
S11357A07E20E073DFF8B80C007800F002007BE0A4
S11357B01422DFF8A41CDFF8800803F05DFC00204D
S11357C020771422DFF8A01C204603F055FC7F202C
S11357D020707E20E073DFF8880C007800F004006D
S11357E062E01422DFF8701CDFF84C0803F044FC7C
S11357F0002020771422DFF8741C204603F03CFCC0
S11358007F2020707E20E073DFF8540C007800F0D5
S1135810080049E01422DFF8401CDFF81C0803F0FC
S11358202BFC002020771422DFF8441C204603F0D0
S113583023FC7F2020707E20E073DFF8240C0078A6
S113584000F0100030E01422DFF80C1CDFF8E80749
S113585003F012FC002020771422DFF8181C2046E5
S113586003F00AFC7F2020707E20E073DFF8F00B49
S1135870007800F0200017E01422DFF8DC1BDFF8CA
S1135880B80703F0F9FB002020771422DFF8E81BA7
S1135890204603F0F1FB7F2020707E20E073DFF8C8
S11358A0C00B007800F040000128C0F2BF8518E06A
S11358B01422DFF8A41BDFF8800703F0DDFB0020CF
S11358C020771422DFF8B41B204603F0D5FB7F2099
S11358D02070DFF88C0B007800F080000128C0F203
S11358E0A5854620E071207200F0A0BD1422DFF8E7
S11358F0901BDFF8440703F0BFFB0020207714223D
S1135900DFF8801B204603F0B7FB7E20EAE2142276
S1135910DFF86C1BDFF8200703F0AEFB00202077D4
S11359201422DFF8641B204603F0A6FB7F202070BE
S11359307E20D7E21422DFF8481BDFF8FC0603F0D0
S11359409BFB002020771422DFF8401B204603F045
S113595093FB7F2020707E20C4E200BF90C601002C
S1135960A4C601001422DFF8181BDFF8CC0603F0EC
S113597083FB002020771422DFF8141B204603F059
S11359807BFB7F20207000F051BD00BFB8C6010032
S1135990CCC60100E0C601001422DFF8F81ADFF8D3
S11359A0980603F069FB0020207703F077FEDFF808
S11359B0E80A406804F06CF9DFF8E01A04F086F9AC
S11359C0DFF8DC1A086004F0FFF90B460246DFF842
S11359D0D41A93E01422DFF8D01ADFF85C06DFF85B
S11359E0CC7ADFF8CC5A03F047FB00202077012360
S11359F03A460621C82004F00FFA2878D8B9387836
S1135A0038B90120387001233A460621C82004F031
S1135A1041FA04233A461821C82004F0FDF92878F5
S1135A2048B9F8783871B87878717878B871387876
S1135A30F871786801E04FF0FF30DFF8781A0860F9
S1135A40642190FBF1F2DFF8701A204603F00CFE9B
S1135A5057E000BFF4C6010008C701001422DFF8B4
S1135A605C1ADFF8D405DFF8447A03F005FB002064
S1135A70207704233A460E21D02004F0CDF9DFF834
S1135A80300A007880B9F8783871B8787871787805
S1135A90B8713878F871786808E000BF1CC7010055
S1135AA030C7010044C70100DFF8140ADFF8141AF4
S1135AB0086004F0EDF8DFF8101A04F007F904F0B8
S1135AC083F90B460246DFF8041A17E01422DFF8C4
S1135AD0001ADFF8640503F0CFFA00202077DFF81E
S1135AE0F409006804F0D4F8DFF8EC1904F0EEF8D7
S1135AF004F06AF90B460246DFF8E019204603F089
S1135B00B3FD1021204603F079F900F08FBC142274
S1135B10DFF8CC19DFF8200503F0AEFA1422DFF821
S1135B20C419204603F0A8FA7E20E07300F07CBC80
S1135B3058C701006CC701001422DFF8A419DFF86C
S1135B40F80403F099FA1422DFF89C19204603F0B4
S1135B5093FA00F067BC1422DFF88419DFF8D80444
S1135B6003F08AFA1422DFF88419204603F084FA39
S1135B707F2020707E20E07300F056BC1422DFF8F2
S1135B807019DFF8B40403F077FA1422DFF854191B
S1135B90204603F071FADFF8C818F420087000F00A
S1135BA043BC00BF80C7010094C70100A8C701001F
S1135BB0BCC7010000202077DFF83869DFF8EC78F3
S1135BC03078DFF874540E2800F2A080DFE800F08B
S1135BD0080B131C2A333C44525B64727B8494008C
S1135BE0DFF8140990E01422DFF81019284603F0B6
S1135BF043FA002089E01422DFF80419284603F050
S1135C003BFADFF800097FE01422DFF8FC1828468D
S1135C1003F032FADFF8F40876E000BFD0C70100E1
S1135C20E4C701001422DFF8E818284603F024FA38
S1135C30DFF8E00868E01422DFF8DC18284603F0F7
S1135C401BFADFF8D8085FE01422DFF8D4182846DE
S1135C5003F012FA002058E01422DFF8C81828468E
S1135C6003F00AFADFF8C0084EE000BFF8C70100ED
S1135C700CC801001422DFF8B418284603F0FCF91C
S1135C80DFF8AC0840E01422DFF8A818284603F037
S1135C90F3F9DFF8A40837E01422DFF8A018284647
S1135CA003F0EAF9DFF898082EE000BF20C80100ED
S1135CB034C801001422DFF88C18284603F0DCF9FC
S1135CC0DFF8840820E01422DFF88018284603F067
S1135CD0D3F9DFF87C0817E01422DFF87818284697
S1135CE003F0CAF9002010E048C801005CC80100B4
S1135CF070C8010084C801001422DFF85C1828462B
S1135D0003F0BAF9DFF8540800683860386842F2E2
S1135D10107190FBF1F1303169710A224FF47A71FC
S1135D2090FBF1F191FBF2F202EB8203A1EB430150
S1135D303031A9710A22642190FBF1F191FBF2F256
S1135D4002EB8203A1EB43013031E9710A220A21FB
S1135D5090FBF1F191FBF2F202EB8203A1EB43021F
S1135D6030322A7201EB8102A0EB420130316972B8
S1135D70317801291ED14520E8724E202873542021
S1135D8068734520A87352205DE000BF98C80100E5
S1135D90ACC80100C0C80100D4C80100E8C80100B3
S1135DA0FCC8010010C9010024C9010038C9010060
S1135DB04CC90100062909D15320E87254202873E4
S1135DC0412068735220A87354203CE0DFF89017F8
S1135DD0DFF890670968401A306010F10A0FB8BF05
S1135DE002F0F0FF306842F2107190FBF1F13031B3
S1135DF0E9720A224FF47A7190FBF1F191FBF2F20D
S1135E0002EB8203A1EB4301303129730A2264219E
S1135E1090FBF1F191FBF2F202EB8203A1EB43015F
S1135E20303169730A220A2190FBF1F191FBF2F2FD
S1135E3002EB8203A1EB43023032AA7301EB81022D
S1135E40A0EB42003030E8731422DFF81C17DFF8AF
S1135E501467204603F010F9DFF810070068642186
S1135E60B0FBF1F10A22B1FBF2F202EB8203A1EBE7
S1135E7043013031E1710A220A21B0FBF1F1B1FB97
S1135E80F2F202EB8203A1EB43023032227201EB05
S1135E908102A0EB420130316172DFF8D416096847
S1135EA0401A48BF0020642190FBF1F1306030318A
S1135EB0E1720A220A2190FBF1F191FBF2F202EB6A
S1135EC08203A1EB43023032227301EB8102A0EB87
S1135ED0420030306073DFF89C060068002800F050
S1135EE0A5822120E073A1E21422DFF88C16524827
S1135EF003F0C2F81422DFF88416204603F0BCF83D
S1135F0092E200BF60C9010074C901001422DFF8E5
S1135F107016494803F0B0F8DFF868060068642199
S1135F20B0FBF1F2DFF86016204603F09DFB102170
S1135F30204602F063FF7F2020707E20E07373E22E
S1135F4088C901001422DFF844163B4803F094F892
S1135F50DFF83C0600686421B0FBF1F3DFF8340697
S1135F600068B0FBF1F2DFF83016204603F07CFB4A
S1135F701021204602F042FF7F2020707E20E07333
S1135F8052E200BF9CC90100B0C90100C4C90100AC
S1135F901422DFF80816284803F06EF8DFF800062C
S1135FA000686421B0FBF1F2DFF8F815204603F035
S1135FB05BFB1021204602F021FF7F2020707E2011
S1135FC0E07331E21422DFF8E0151B4803F054F8C3
S1135FD0DFF8C404406803F05BFEDFF8C01403F08C
S1135FE075FE03F0F1FE02460B46DFF8B8142046B6
S1135FF003F03AFB1021204602F000FF7F202070BE
S11360007E20E07310E21422DFF8A0150A4803F0A2
S113601033F8DFF86005DFF898150268204603F0CE
S113602023FB1021204602F0E9FE7F2020707E2011
S1136030E073F9E1D8C90100B81E0020ECC90100E1
S1136040E81E002000CA01001422DFF86815DFF8FA
S1136050680503F011F81422DFF86015204603F0F8
S11360600BF8DFF85C050178A1714178E171817862
S11360702172C0786072D5E11422DFF84815DFF888
S1136080380502F0F9FF1422DFF83015204602F03B
S1136090F3FFDFF82C050178A1714178E171817873
S11360A02172C0786072207E032800F2BD81DFE88F
S11360B010F00A00080006000400FEF7EFBDFEF72A
S11360C0C5BDFEF79CBDCE20E0760120ADE11422D3
S11360D0DFF8E014DFF8E00402F0CEFF14220249F6
S11360E0204602F0C9FF9FE150C2010000200CE0ED
S11360F001200AE0022008E0032006E0042004E076
S1136100052002E0062000E00720FEF745F88DE1B7
S1136110DFF8A454DFF8B0141422284602F0ACFFD0
S1136120DFF850040068C0F3002028B159206873D8
S11361306520A8737320E8730622DFF8905429467B
S11361404FF42E5003F0C5F828796B782A78DFF8DD
S113615080140290E8780190A8780090204603F01B
S113616083FA1021204602F049FE7F2020707E2011
S1136170E07359E1DFF84054DFF85814142228463C
S113618002F07AFFDFF8EC030068C0F3402028B186
S1136190592068736520A8737320E8730622DFF81A
S11361A02C54294642F6863003F093F828796B780C
S11361B02A78DFF81C140290E8780190A8780090FF
S11361C0204603F051FA1021204602F017FE7F20EA
S11361D020707E20E07327E114CA010028CA010060
S11361E03CCA010050CA010064CA010078CA010017
S11361F08CCA0100A0CA0100DFF8BC530FF2D831E9
S11362001422284602F038FFDA480068C0F38020E0
S113621028B1592068736520A8737320E873062297
S1136220EA4D294642F68C3003F053F828796B780E
S11362302A780FF21C410290E8780190A878009027
S1136240204603F011FA1021204602F0D7FD7F20EA
S113625020707E20E073E7E0D74D0FF290311422D6
S1136260284602F009FFC3480068C0F3C02028B1E3
S1136270592068736520A8737320E8730622D34DF0
S1136280294642F6923003F024F828796B782A786C
S11362900FF2BC310290E8780190A8780090204673
S11362A003F0E2F91021204602F0A8FD7F202070BF
S11362B07E20E073B8E0C04D0FF24431142228462A
S11362C002F0DAFEAB480068C0F3003028B1592070
S11362D068736520A8737320E8730622BB4D2946B2
S11362E042F6983002F0F5FF28796B782A780FF29D
S11362F060310290E8780190A8780090204603F07D
S1136300B3F91021204602F079FD7F2020707E2011
S1136310E07389E0A84D0FF2FC211422284602F014
S1136320ABFE94480068C0F3403028B1592068732C
S11363306520A8737320E8730622A44D294642F60B
S11363409E3002F0C6FF28796B782A780FF200316C
S11363500290E8780190A8780090204603F084F930
S11363601021204602F04AFD7F2020707E20E07339
S11363705AE0914D0FF2B0211422284602F07CFE1F
S11363807C480068C0F3803028B1592068736520C8
S1136390A8737320E87306228C4D294642F6A43074
S11363A002F097FF28796B782A780FF2A4210290E3
S11363B0E8780190A8780090204603F055F9102160
S11363C0204602F01BFD7F2020707E20E0732BE02E
S11363D0794D0FF268211422284602F04DFE6548DB
S11363E00068C0F3C03028B1592068736520A873D1
S11363F07320E8730622754D294642F6AA3002F04E
S113640068FF28796B782A780FF244210290E878A3
S11364100190A8780090204603F026F91021204628
S113642002F0ECFC7F2020700020207703B0BDE850
S1136430F04002F043B900BFB4CA0100C8CA010069
S1136440DCCA0100F0CA010004CB010018CB010032
S11364502CCB0100DC1E002040CB010054CB0100FA
S11364601C20002068CB01007CCB010090CB0100F4
S1136470A4CB0100B8CB0100CCCB0100E0CB0100E0
S1136480F4CB010008CC01001CCC010030CC01008D
S113649044CC010058CC0100041B00200000C84279
S11364A06C1F00206CCC010078CC0100201F002060
S11364B014200020000A00208CCC010098CC01009C
S11364C000000CFE541F002000007A44ACCC0100F4
S11364D0B8CC0100781D002000002041CCCC010084
S11364E0D8CC0100ECCC010000CD010014CD01009A
S11364F028CD0100E10A0020D41E00203CCD01007B
S113650050CD0100800A002064CD0100840A0020DF
S113651078CD0100880A00208CCD0100B01F002036
S1136520A0CD0100B4CD0100900A0020C8CD010027
S1136530940A0020DCCD0100A00A0020F0CD010067
S1136540A40A002004CE0100BC0A002018CE0100D9
S1136550C00A00202CCE010040CE0100C40A002055
S1136560841F0020681F002054CE01008C0A0020E4
S1136570B41F0020E01F002068CE01007CCE010083
S113658090CE0100AC1F0020A4CE0100ACCE0100CF
S1136590981F0020A01F0020C0CE0100C8CE01001B
S11365A09C1F0020DCCE0100E4CE0100F8CE0100E7
S11365B00CCF010098C80100B81E0020ACC801002F
S11365C0E81E002018CF010028C201006811002035
S11365D0506600003CC20100504145204F545020F9
S11365E0534855543A204E6F000000005041452056
S11365F046414E204641494C3A204E6F000000006F
S113660050414520534D5053204552523A204E6F2D
S1136610000000005041452048492054454D502079
S11366203A204E6F00000000504145204143205065
S1136630444F574E3A204E6F000000005041452011
S1136640414320495020464C3A204E6F0000000040
S113665025642F25642F25642025643A25640000D1
S113666070B588B0FDF74CFDDFF8844E607E0128DC
S113667042F01C8000206076E07D032802F2168040
S1136680DFE810F00400BD00F501B40E207D401ECB
S1136690942802F20B80DFE810F04F0F430F4E01F5
S11366A00910950009100910450F470F490F4B0FAA
S11366B0091009100910091009100910A000510F40
S11366C00910530F550F570F590F5B0F5D0F5F0FD5
S11366D0610F630F650F670F690F6B0F6D0F6F0FFE
S11366E0710F730F750F770F790F7B0F7D0F7F0F6E
S11366F0810F830F950095009500950095009500F6
S113670095009500950095009500950095009500DD
S113671095009500950095009500950095009500CD
S113672095009500950095000910091009100910AD
S1136730091009100910091009100910091009108D
S1136740091009100910091009100910091009107D
S11367500910091009100910091009100910950FE2
S11367605C0109100910AB0D650168016B016E0134
S1136770710174010910EA0F5F0162010910091027
S11367800910091009100910A3007A017C017E0187
S113679080018201A70009100910A500B901BB01FD
S11367A0BD01BF01C101C301C501C701C901CB01BD
S11367B0CD01CF01D101D3010910AE02870F091019
S11367C095009500207EDFF8385E415D392981F21D
S11367D06887491C415501F064BF112001F060BF76
S11367E0762030E180202EE1207EDFF8145E415DCA
S11367F0392981F25687491C415501F052BF207D49
S1136800952801F25387DFE810F08B0E9600E50E11
S1136810510F99009900510F8F0E910E930E950E02
S1136820510F510F510F510F510F510F990EDB0E94
S1136830510F9D0E9F0EA10EA30EA50EA70EA90E1D
S1136840AB0EAD0EAF0EB10EB30EB50EB70EB90E44
S1136850BB0EBD0EBF0EC10EC30EC50EC70EC90EB4
S1136860CB0ECD0E510F9900990099009900990013
S1136870990099009900990099009900990099004C
S1136880990099009900990099009900990099003C
S113689099009900990099009900510F510F510FD7
S11368A0510F510F510F510F510F510F510F510FE4
S11368B0510F510F510F510F510F510F510F510FD4
S11368C0510F510F510F510F510F510F510FA40080
S11368D0300F510F510FAD00B000B300B600B90036
S11368E0BC00BF00510FA700AA004A0F510F510F5F
S11368F0510F510F510FC200510FC400C600C80000
S1136900CA00CC00510F2701510F010103010501F9
S1136910070109010B010D010F01110113011501FB
S1136920170119011B011D01510FCF0ED10E510F7B
S1136930510F99009900022001F0B2BE207EDFF8C9
S1136940C05C415D3129C1F2AC86491E415501F05C
S1136950A8BE632001F0A4BE6F2001F0A1BE702088
S113696001F09EBE672001F09BBE682001F098BE36
S1136970692001F095BE6A2001F092BE6B2001F0FF
S11369808FBE6C2001F08CBE6D2001F089BE782092
S113699059E0792057E07A2055E07B2053E07C20B1
S11369A051E07D2020750A21DFF8680EDFF8505C85
S11369B00068B0FBF1F101EB8103A0EB430230323C
S11369C0EA700A22B1FBF2F202EB8203A1EB43016B
S11369D03031A9700A226421B0FBF1F1B1FBF2F26B
S11369E002EB8203A1EB4301303169704FF47A71F9
S11369F0B0FBF1F00A21B0FBF1F101EB8102A0EB55
S1136A00420030302870002020761DE081201AE0FA
S1136A10822018E0832016E0842014E0852012E010
S1136A20862010E087200EE088200CE089200AE010
S1136A308A2008E08B2006E08C2004E08D2002E010
S1136A408E2000E08F202075FDF792FCDFF8C80D42
S1136A500068606208B070BD207EDFF8A45B415D11
S1136A603129C1F21E86491E415501F01ABE207D0E
S1136A70952801F21B86DFE810F09600550DB10051
S1136A80BE00190EC100190ED500D800DB00DE00CF
S1136A90E100190E190E190E190E190E190E630DB7
S1136AA0A50DE40019014E018301B801ED01220294
S1136AB057028C02C102F6022B0360039503BF0345
S1136AC0F4030F042A045E049204C604E8041105C6
S1136AD03D0566058F05C505F0051E064C067806BE
S1136AE0A406EC061A0754078107AE07DE070B0855
S1136AF03B0869089608C308F0081F094D097B097B
S1136B00AC09DE09100A3F0A710A190E190E190E92
S1136B10190E190E190E190E190E190E190E190E39
S1136B20190E190E190E190E190E190E190E190E29
S1136B30190E190E190E190E190E190E190EB90B7C
S1136B40BB0BFA0D190EBD0BC70BD10BDB0BE50B01
S1136B50EF0BF90B030C980C9A0CA50CB70C190E3F
S1136B60190E190E190E110C210C190E190E190EED
S1136B70190E3A0C670C690C190E3C0C3F0C420CB4
S1136B80490C4D0C510C550C190E190E190E190EF9
S1136B90190E190E190E190E190E0F0CAF0AF10A5F
S1136BA0190E470B710B762020750120DFF86C1C41
S1136BB008700A4601230621C82003F06BF9DFF8A8
S1136BC0601C01200870DFF85C1C08700020DFF8EE
S1136BD0581C0860FDF7CCFB01F0ACBB0520207508
S1136BE0052200202076DFF8441CDFF8140A02F0A6
S1136BF043FA01F056BD902001F052BD207E0328D7
S1136C0003DA401C207601F04CBDDFF8241CDFF8C9
S1136C10F00903F075F900280CBF12200620207536
S1136C2001F03FBD0C2001F03BBD0D2001F038BD4B
S1136C300E2001F035BD0F2001F032BD102001F00F
S1136C402FBDDFF8F00BDFF8B85900680A21B0FB5C
S1136C50F1F101EB8103A0EB43023032EA700A2226
S1136C60B1FBF2F202EB8203A1EB43013031A970D4
S1136C700A226421B0FBF1F1B1FBF2F202EB8203D0
S1136C80A1EB4301303169704FF47A71B0FBF1F03C
S1136C900A21B0FBF1F101EB8102A0EB420030309C
S1136CA02870002020762E2001F0FABCDFF8880B33
S1136CB0DFF84C5900680A21B0FBF1F101EB8103C4
S1136CC0A0EB43023032EA700A22B1FBF2F202EB8B
S1136CD08203A1EB43013031A9700A226421B0FB85
S1136CE0F1F1B1FBF2F202EB8203A1EB430130318B
S1136CF069704FF47A71B0FBF1F00A21B0FBF1F145
S1136D0001EB8102A0EB4200303028700020207695
S1136D102F2001F0C5BCDFF8240BDFF8E45800682D
S1136D200A21B0FBF1F101EB8103A0EB4302303205
S1136D30EA700A22B1FBF2F202EB8203A1EB4301F7
S1136D403031A9700A226421B0FBF1F1B1FBF2F2F7
S1136D5002EB8203A1EB4301303169704FF47A7185
S1136D60B0FBF1F00A21B0FBF1F101EB8102A0EBE1
S1136D7042003030287000202076302001F090BC92
S1136D80DFF8BC0ADFF8785800680A21B0FBF1F19B
S1136D9001EB8103A0EB43023032EA700A22B1FB1B
S1136DA0F2F202EB8203A1EB43013031A9700A2213
S1136DB06421B0FBF1F1B1FBF2F202EB8203A1EB2F
S1136DC04301303169704FF47A71B0FBF1F00A215C
S1136DD0B0FBF1F101EB8102A0EB420030302870EE
S1136DE000202076312001F05BBCDFF8580ADFF880
S1136DF0105800680A21B0FBF1F101EB8103A0EB0C
S1136E0043023032EA700A22B1FBF2F202EB82034F
S1136E10A1EB43013031A9700A226421B0FBF1F1E6
S1136E20B1FBF2F202EB8203A1EB43013031697052
S1136E304FF47A71B0FBF1F00A21B0FBF1F101EBF0
S1136E408102A0EB420030302870002020763220EE
S1136E5001F026BCDFF8F009DFF8A45700680A2126
S1136E60B0FBF1F101EB8103A0EB43023032EA7095
S1136E700A22B1FBF2F202EB8203A1EB43013031AF
S1136E80A9700A226421B0FBF1F1B1FBF2F202EB2A
S1136E908203A1EB4301303169704FF47A71B0FB86
S1136EA0F1F00A21B0FBF1F101EB8102A0EB420009
S1136EB03030287000202076332001F0F1BBDFF859
S1136EC0F80EDFF83C5700680A21B0FBF1F101EB42
S1136ED08103A0EB43023032EA700A22B1FBF2F2E2
S1136EE002EB8203A1EB43013031A9700A22642131
S1136EF0B0FBF1F1B1FBF2F202EB8203A1EB43012F
S1136F00303169704FF47A71B0FBF1F00A21B0FBB3
S1136F10F1F101EB8102A0EB420030302870002037
S1136F202076342001F0BCBBDFF8F00EDFF8D05639
S1136F3000680A21B0FBF1F101EB8103A0EB4302ED
S1136F403032EA700A22B1FBF2F202EB8203A1EBC7
S1136F5043013031A9700A226421B0FBF1F1B1FB85
S1136F60F2F202EB8203A1EB4301303169704FF47A
S1136F707A71B0FBF1F00A21B0FBF1F101EB81026F
S1136F80A0EB42003030287000202076352001F03C
S1136F9087BBDFF8E80EDFF8685600680A21B0FB0B
S1136FA0F1F101EB8103A0EB43023032EA700A22D3
S1136FB0B1FBF2F202EB8203A1EB43013031A97081
S1136FC00A226421B0FBF1F1B1FBF2F202EB82037D
S1136FD0A1EB4301303169704FF47A71B0FBF1F0E9
S1136FE00A21B0FBF1F101EB8102A0EB4200303049
S1136FF0287000202076362001F052BBDFF8800E86
S1137000DFF8FC5500680A21B0FBF1F101EB8103C4
S1137010A0EB43023032EA700A22B1FBF2F202EB37
S11370208203A1EB43013031A9700A226421B0FB31
S1137030F1F1B1FBF2F202EB8203A1EB4301303137
S113704069704FF47A71B0FBF1F00A21B0FBF1F1F1
S113705001EB8102A0EB4200303028700020207642
S1137060372001F01DBBDFF8780EDFF89455006877
S11370700A21B0FBF1F101EB8103A0EB43023032B2
S1137080EA700A22B1FBF2F202EB8203A1EB4301A4
S11370903031A9700A226421B0FBF1F1B1FBF2F2A4
S11370A002EB8203A1EB4301303169704FF47A7132
S11370B0B0FBF1F00A21B0FBF1F101EB8102A0EB8E
S11370C042003030287000202076382001F0E8BAE1
S11370D0DFF8700EDFF8285500680A21B0FBF1F1E3
S11370E001EB8103A0EB43023032EA700A22B1FBC8
S11370F0F2F202EB8203A1EB43013031A9700A22C0
S11371006421B0FBF1F1B1FBF2F202EB8203A1EBDB
S11371104301303169704FF47A71B0FBF1F00A2108
S1137120B0FBF1F101EB8102A0EB4200303028709A
S113713000202076392001F0B3BADFF8900EDFF892
S1137140C05400680A21B0FBF1F101EB8103A0EB0C
S113715043023032EA700A22B1FBF2F202EB8203FC
S1137160A1EB43013031A9700A226421B0FBF1F193
S1137170B1FBF2F202EB8203A1EB430130316970FF
S11371804FF47A71B0FBF1F00A21B0FBF1F101EB9D
S11371908102A0EB420030302870002020763A2093
S11371A001F07EBADFF8280EDFF8545400680A2193
S11371B0B0FBF1F101EB8103A0EB43023032EA7042
S11371C02E22AA700A22B1FBF2F202EB8203A1EB97
S11371D04301303169706421B0FBF1F00A21B0FB46
S11371E0F1F101EB8102A0EB420030302870002065
S11371F020763B2001F054BADFF81806DFF800547B
S113720000680A21B0FBF1F101EB8103A0EB43021A
S11372103032EA700A22B1FBF2F202EB8203A1EBF4
S113722043013031A9700A226421B0FBF1F1B1FBB2
S1137230F2F202EB8203A1EB4301303169704FF4A7
S11372407A71B0FBF1F00A21B0FBF1F101EB81029C
S1137250A0EB420030302870002020763C2001F062
S11372601FBADFF8980EE64D00680A21B0FBF1F171
S113727001EB810230316970A0EB420264213032AB
S1137280B0FBF1F0EA70303028702E22AA70002092
S113729020763D2001F004BADFF8640ED84D006872
S11372A00A21B0FBF1F101EB810230316970A0EBEE
S11372B0420264213032B0FBF1F0EA7030302870C1
S11372C02E22AA70002020763E2001F0E9B9DFF8D2
S11372D0340ECB4D00680A21B0FBF1F101EB8103C0
S11372E0A0EB43023032EA700A22B1FBF2F202EB65
S11372F08203A1EB43013031A9700A226421B0FB5F
S1137300F1F1B1FBF2F202EB8203A1EB4301303164
S113731069704FF47A71B0FBF1F00A21B0FBF1F11E
S113732001EB8102A0EB420030302870002020766F
S11373303F2001F0B5B9DFF8A40EB14D00680A2171
S1137340B0FBF1F101EB8103A0EB43023032EA70B0
S11373500A22B1FBF2F202EB8203A1EB43013031CA
S1137360A9700A226421B0FBF1F1B1FBF2F202EB45
S11373708203A1EB4301303169704FF47A71B0FBA1
S1137380F1F00A21B0FBF1F101EB8102A0EB420024
S11373903030287000202076402001F081B9DFF8D9
S11373A0400E974D00680A21B0FBF1F101EB810317
S11373B0A0EB43023032EA700A22B1FBF2F202EB94
S11373C08203A1EB43013031A9700A226421B0FB8E
S11373D0F1F1B1FBF2F202EB8203A1EB4301303194
S11373E069704FF47A71B0FBF1F00A21B0FBF1F14E
S11373F001EB8102A0EB420030302870002020769F
S1137400412001F04DB9DFF8DC0D7D4D00680A2103
S1137410B0FBF1F101EB8103A0EB43023032EA70DF
S11374200A22B1FBF2F202EB8203A1EB43013031F9
S1137430A9702E2169706421B0FBF1F030302870FE
S113744000202076422001F02BB9DFF8680E6C4D45
S113745000680A21B0FBF1F101EB8103A0EB4302C8
S11374603032EA700A22B1FBF2F202EB8203A1EBA2
S113747043013031A9702E2169706421B0FBF1F011
S11374800A21B0FBF1F101EB8102A0EB42003030A4
S1137490287000202076432001F002B9DFF8180E8E
S11374A0574D00680A21B0FBF1F101EB8103A0EB19
S11374B043023032EA702E22AA700A22B1FBF2F2A1
S11374C002EB8203A1EB4301303169706421B0FB0C
S11374D0F1F00A21B0FBF1F101EB8102A0EB4200D3
S11374E03030287000202076442001F0D9B800BF45
S11374F05C1E0020DFF8480E414D00680A21B0FBF5
S1137500F1F101EB8103A0EB43023032EA702E2249
S1137510AA700A22B1FBF2F202EB8203A1EB43014F
S1137520303169706421B0FBF1F00A21B0FBF1F154
S113753001EB8102A0EB420030302870002020765D
S1137540452001F0ADB8DFF8FC0D2D4D00680A218F
S1137550B0FBF1F101EB8103A0EB43023032EA709E
S11375600A22B1FBF2F202EB8203A1EB43013031B8
S1137570A9702E2169706421B0FBF1F00A21B0FBDF
S1137580F1F101EB8102A0EB4200303028700020C1
S11375902076462001F084B8DFF8400E184D0068CC
S11375A00A21B0FBF1F101EB8103A0EB430230327D
S11375B0EA700A22B1FBF2F202EB8203A1EB43016F
S11375C03031A9700A226421B0FBF1F1B1FBF2F26F
S11375D002EB8203A1EB4301303169704FF47A71FD
S11375E0B0FBF1F00A21B0FBF1F101EB8102A0EB59
S11375F042003030287000202076472001F050B837
S1137600E81E0020207E0328C0F2A386DFF8D05DA8
S1137610DFF8D06D2878303800EB80016878303896
S113762000EB410202EB8200AA784100E878303A8C
S11376305118303801EB810200EB42001F28306002
S113764008D27C49086001227449086040F20110A4
S113765000F0B0BC482001F023B8207E0328C0F21B
S11376607886DFF87C5DDFF87C6D2878303800EBB5
S113767080016878303800EB410202EB8200AA787E
S11376804100E878303A5118303801EB810200EBC0
S11376904200A0F10A01B1F5F57F306008D86649CF
S11376A0086002225D4908604FF4817000F082BCDA
S11376B0492000F0F5BF207E0328C0F24A86DFF897
S11376C0205DDFF8206D2878303800EB8001687881
S11376D0303800EB410202EB8200AA784100E878DE
S11376E0303A5118303801EB810200EB4200A0F12E
S11376F00A01B1F5F57F306008D8504908600222CC
S1137700464908604FF4827000F054BC4A2000F0EF
S1137710C7BF207E0328C0F21C86DFF8C45CDFF8F4
S1137720C46C2878303800EB80016878303800EB7E
S1137730410202EB8200AA784100E878303A5118FD
S1137740303801EB810200EB4200B0F5FA7F306083
S113775008D83B4908600222304908604FF483701E
S113776000F028BC4B2000F09BBF207E0328C0F211
S1137770F085DFF86C5CDFF86C6C2878303800EB4F
S113778080016878303800EB410202EB8200AA786D
S11377904100E878303A5118303801EB810210EB9F
S11377A0420030600AD0C92808D226490860012264
S11377B01A4908604FF4847000F0FCBB4C2000F0C0
S11377C06FBF207E0328C0F2C485DFF8145CDFF8A5
S11377D0146C2878303800EB80016878303800EB7E
S11377E0410202EB8200AA784100E878303A51184D
S11377F0303801EB810210EB4200306026D0C928FA
S113780024D21149086001220449086040F2091099
S1137810D0E300BFAC0A0020D41E0020201F0020AB
S113782028200020E10A0020841F00202CCF010022
S11378303C1C0020800A0020840A0020880A0020C2
S1137840B01F0020900A0020940A00204D2000F070
S113785027BF207E0328C0F27C85DFF8845BDFF835
S1137860846B2878303800EB80016878303800EB7E
S1137870410202EB8200AA784100E878303A5118BC
S1137880303801EB810210EB420030600CD0B0F5CF
S1137890167F09D8DFF8201508600222DFF8101ED1
S11378A008604FF4857085E34E2000F0F9BE207E19
S11378B00328C0F24E85DFF8285BDFF8286B2878B0
S11378C0303800EB80016878303800EB410202EB7D
S11378D08200AA784100E878303A5118303801EB38
S11378E0810200EB4200A0F5967141F6F522914227
S11378F030600AD2DFF8241508600222DFF8B01DD8
S113790008604FF4867000F049BD4F2020751422A2
S1137910DFF8A01D204601F0AFFB00F0CFFE00F021
S1137920C0BE207E0328C0F21485DFF8B45ADFF805
S1137930B46A2878303800EB80016878303800EB7E
S1137940410202EB8200AA784100E878303A5118EB
S1137950303801EB810210EB420030600BD0152867
S113796009D2DFF8181508600122DFF8441D086009
S11379704FF487701EE3502000F092BE207E03284F
S1137980C0F2E784DFF8585ADFF8586A28783038AC
S113799000EB80016878303800EB410202EB820092
S11379A0AA784100E878303A5118303801EB810266
S11379B010EB420030600BD03D2809D2DFF8C01430
S11379C008600122DFF8E81C086040F20F10F1E2C1
S11379D0512000F065BE207E0328C0F2BA84DFF88F
S11379E0005ADFF8006A2878303800EB80016878A4
S11379F0303800EB410202EB8200AA784100E878BB
S1137A00303A5118303801EB810200EB4200A0F10A
S1137A10320140F6DF529142306009D2DFF8C014DF
S1137A2008600222DFF8881C08604FF48870C1E205
S1137A30522000F035BE207E0328C0F28A84DFF88D
S1137A40A059DFF8A0692878303800EB8001687805
S1137A50303800EB410202EB8200AA784100E8785A
S1137A60303A5118303801EB810200EB4200411FDB
S1137A701029306009D2DFF8CC1408600122DFF845
S1137A80301C08604FF4897094E2532000F008BE63
S1137A90207E0328C0F25D84DFF84459DFF844698E
S1137AA02878303800EB80016878303800EB4102E8
S1137AB002EB8200AA784100E878303A5118303855
S1137AC001EB810200EB4200A0F11E0140F6F352EB
S1137AD09142306009D2DFF8F41408600222DFF822
S1137AE0D01B086040F2131064E2542000F0D8BDAB
S1137AF0207E032808DA401C2076C0B2022840F019
S1137B00D585032000F026BCDFF8D458DFF8D4680C
S1137B102878303800EB80016878303800EB410277
S1137B2002EB82004100E878303840186528306064
S1137B3009D2DFF89C1408600122DFF8741B086086
S1137B4040F2151036E2552000F0AABD207E03282D
S1137B50C0F2FF83DFF88858DFF888682878303867
S1137B6000EB80016878303800EB410202EB8200C0
S1137B70AA784100E878303A5118303801EB810294
S1137B8000EB4200B0F5FA6F306009D8DFF8281B2B
S1137B9008600222DFF8181B08604FF48B7009E2BA
S1137BA0562000F07DBD207E032807DA401C207695
S1137BB0C0B2022840F07A850320CBE3DFF82058D6
S1137BC0DFF820682878303800EB80016878303896
S1137BD000EB410202EB82004100E87830384018A3
S1137BE06528306009D2DFF8141508600122DFF837
S1137BF0C01A08604FF48C70DCE1572000F050BDCF
S1137C00207E032807DA401C2076C0B2022840F008
S1137C104D8503209EE3DFF8C857DFF8C86728784E
S1137C20303800EB80016878303800EB410202EB19
S1137C3082004100E878303840186528306009D265
S1137C40DFF8BC1408600122DFF8641A086040F20F
S1137C501910AFE1582000F023BD207E0328C0F2A4
S1137C607883DFF87C57DFF87C672878303800EBBE
S1137C7080016878303800EB410202EB8200AA7878
S1137C804100E878303A5118303801EB810200EBBA
S1137C904200411F41F284329142306009D2DFF840
S1137CA0641408600222DFF8081A08604FF48D702B
S1137CB080E1592000F0F4BC207E0328C0F24983FF
S1137CC0DFF81C57DFF81C672878303800EB800198
S1137CD06878303800EB410202EB8200AA78410058
S1137CE0E878303A5118303801EB810200EB420059
S1137CF0A0F114012929306009D2DFF8E0140860EA
S1137D000122DFF8AC1908604FF48E7052E15A205A
S1137D1000F0C6BC207E0328C0F21B83DFF8C056E7
S1137D20DFF8C0662878303800EB80016878303896
S1137D3000EB410202EB8200AA784100E878303A75
S1137D405118303801EB810200EB4200411FB1F5BC
S1137D501C6F306009D2DFF8881408600222DFF853
S1137D605019086040F21D1024E15B2000F098BC1B
S1137D70207E032807DA401C2076C0B2012840F098
S1137D8095840220E6E2DFF85856DFF85866297831
S1137D90AA78E8783039303A01EB810302EB4301E9
S1137DA0303801EB810200EB4200B0F57A7F30609D
S1137DB00CD2DFF8301401E0980A00200860022297
S1137DC0DFF8EC18086040F22310F3E05C2000F0C8
S1137DD067BC207E032807DA401C2076C0B2012845
S1137DE040F064840220B5E2DFF8F455DFF8F4656E
S1137DF02978AA78E8783039303A01EB810302EB2C
S1137E004301303801EB810200EB4200B0F57A7F88
S1137E1030600DD2DFF89C1402E000BF9C0A002001
S1137E2008600222DFF88818086040F22510C1E0DB
S1137E305D2000F035BC207E032807DA401C207644
S1137E40C0B2022840F03284032083E2DFF8905568
S1137E50DFF890652878303800EB80016878303896
S1137E6000EB410202EB82004100E8783038401810
S1137E70152830600ED2DFF8401403E0A00A002079
S1137E80A40A002008600222DFF82418086040F2E7
S1137E902B108FE05E2000F003BC207E032807DA5D
S1137EA0401C2076C0B2022840F00084032051E236
S1137EB0DFF82C55DFF82C652878303800EB80018A
S1137EC06878303800EB410202EB82004100E87828
S1137ED030384018152830600CD2DFF8641401E003
S1137EE0BC0A002008600222DFF8C417086040F2D0
S1137EF02D105FE05F20D3E3207E032807DA401CC7
S1137F002076C0B2012840F0D183022022E2DFF8BB
S1137F10D054DFF8D0642978AA78E8783039303A38
S1137F2001EB810302EB4301303801EB810200EBEA
S1137F304200A0F13201972930600DD2DFF8041419
S1137F4002E000BFC00A002008600222DFF86017C8
S1137F50086040F231102DE06020A1E3207E032868
S1137F60C0F2F781DFF87854DFF878642878303885
S1137F7000EB80016878303800EB410202EB8200AC
S1137F80AA784100E878303A5118303801EB810280
S1137F9000EB4200A0F10A0140F2C7729142306046
S1137FA018D2DFF8381408600222DFF804170860DA
S1137FB040F2371001F040F91422DFF8F816204699
S1137FC001F05AF808B0BDE8704077E3C40A002015
S1137FD0A80A0020612063E384B0DFF8D41B68465C
S1137FE02C2201F049F80FBC02F02CF8DFF8C42B66
S1137FF0DFF8C41B1268DFF8E8531018086008465D
S113800002F0F6F8DFF8B41B08600A22416964390B
S113801041610169491C0161816891FBF2F13031D0
S11380202970816891FBF2F202EB8203A1EB430118
S1138030303169700A22416891FBF2F13031A97044
S11380400A21406890FBF1F101EB8102A0EB4200B0
S11380503030E87000202076942021E384B0DFF8EB
S1138060501B68462C2201F007F80FBC01F0EAFF10
S1138070DFF8402BDFF8401B1268D94D1018086058
S1138080084602F0B5F8DFF8341B0860026941695C
S1138090521C6439026141610A2291FBF2F13031D0
S11380A02970416991FBF2F202EB8203A1EB4301D7
S11380B0303169700A22016991FBF2F13031A97003
S11380C0016991FBF2F202EB8203A1EB430130312F
S11380D0E9700A22C16891FBF2F1303129710A2159
S11380E0C06890FBF1F101EB8102A0EB420030305B
S11380F06871002020769520D2E200BFB00A0020EB
S1138100B40A00208C0A0020207E0328C0F22181BA
S1138110B34DB44E2878303800EB8001687830389D
S113812000EB4102182A326016D2DFF8941A0A6072
S1138130AA78E878303A303802EB820300EB430245
S11381403C2A326008D2DFF87C0A09688161426106
S11381500021016108B070BD9620A1E2207E0628AE
S1138160C0F2F7809E4D9F4E2878303800EB800196
S11381706878303800EB4102112A326034D3A87891
S113818000EB8001E87800EB4100A0F110012879B0
S113819000EB8003687900EB43001038D2B2C9B217
S11381A0C0B200F03FFD01281ED1DFF8180A316883
S11381B04162A97801EB8102E97801EB4201A1F562
S11381C004710162297901EB8102697901EB4201B1
S11381D0A1F50471C16108B070BD00BF7C0A002024
S11381E0B80A0020C80A0020972059E2652057E207
S11381F0662055E2DFF8D0090178CA074CBF01F0C8
S1138200FE0141F0010144E0DFF8BC0901788A076E
S11382104CBF01F0FD0141F002013AE0DFF8A8098A
S113822001784A074CBF01F0FB0141F0040130E042
S1138230DFF8940901780A074CBF01F0F70141F017
S1138240080126E0DFF880090178CA064CBF01F076
S1138250EF0141F010011CE0DFF86C0901788A0697
S11382604CBF01F0DF0141F0200112E0DFF85809B2
S113827001784A064CBF01F0BF0141F0400108E01B
S1138280DFF8440901780A0654BF41F0800101F087
S11382907F01017008B070BD932001E2DFF82C0962
S11382A00178012940F00282062101700420002196
S11382B027E000BFCC0A0020BC1F0020DFF8101903
S11382C00020087001F0A2FFDFF8E413002008701A
S11382D00A4601230621C82001F0DCFD0020207598
S11382E0FF20DFF8E4180870FCF742F822E0802051
S11382F0D6E10021002004E00021012001E000215A
S1138300022008B0BDE8704003F0F4BE0021032051
S113831003F0F0FE0021042003F0ECFE0021052010
S113832003F0E8FE0021062003F0E4FEDFF8A418C1
S11383300020086008B0BDE8704004F095BF00BF9D
S1138340C01F0020C41F00207E20A9E1207E032836
S113835003DA401C207608B070BD214D214E2878E8
S1138360303800EB80016878303800EB410202EBD2
S11383708200AA784100E878303A5118303801EB8D
S1138380810200EB4200B0F5FA6F30600BD8CA49A5
S113839008600222C64908604FF48B7008B0BDE83B
S11383A0704000F049BF7F207AE1722078E1C04933
S11383B0012008700A4601230621C82001F06AFD45
S11383C073206DE1BA49012008700A460123062191
S11383D0D02001F05FFD742062E100BFD00A0020CC
S11383E0E81E0020701F0020752059E1207D401FE9
S11383F0922800F25B81DFE810F09F009F00930059
S113840093009300930093009500970099009B00BC
S11384109D009F009F009F00A100A100A100A1005A
S1138420A100A100A100A100A100A100A100A10040
S1138430A100A100A100A100A100A100A100A10030
S1138440A100A100A100A100A100A100A300A5001A
S1138450A700A900AB00AD00AF00B100B300B500A8
S1138460B700B900BB00BD00BF00C100C300C50018
S1138470C700C900CB00CD00CF00D100D300D50088
S1138480A300A500A700A900AB00AD00AF00B10098
S1138490B300B500B700B900BB00BD00BF00C10008
S11384A0C300C500C700C900CB00CD00CF00D10078
S11384B0D300D500E300E300E300E500E700E700B4
S11384C0E700E700E700E700E700E70038013801CC
S11384D0380138013A013C0147015201F500FB0023
S11384E0FB00FB00FB00FB00FB00FB00FF00FF00A8
S11384F0FD00FD00FD00FD00FD00FD00FD00FD0090
S1138500FD00FD00FD00FD00FD00FD00FD00FD007F
S1138510ED00ED00ED00EF00D700D900DB00DF0037
S11385200120BDE00720BBE00820B9E00920B7E046
S11385300A20B5E00B20B3E00020B1E01220AFE048
S11385401420ADE01520ABE01620A9E01720A7E029
S11385501820A5E01920A3E01A20A1E01B209FE029
S11385601C209DE01D209BE01E2099E01F2097E029
S1138570202095E0212093E0222091E023208FE029
S113858024208DE025208BE0262089E0272087E029
S1138590282085E0292083E02A2081E02B207FE029
S11385A02C207DE02D207BE0912079E0922077E063
S11385B000202076942073E00020207695206FE040
S11385C013206DE062206BE0DFF8FC15FF200870DB
S11385D0632065E0032063E0DFF8EC15FF200870FA
S11385E090205DE0DFF8F00500686062772057E0D6
S11385F0762055E07C2053E02F48DFF8E0550068F2
S11386000A21B0FBF1F101EB8103A0EB430230320C
S1138610EA700A22B1FBF2F202EB8203A1EB4301FE
S11386203031A9700A226421B0FBF1F1B1FBF2F2FE
S113863002EB8203A1EB4301303169704FF47A718C
S1138640B0FBF1F00A21B0FBF1F101EB8102A0EBE8
S113865042003030287000202076FBF789FEDFF8D6
S11386607805006860627D201AE0642018E06E20BE
S113867016E00F49002008700A4601230621C8208D
S113868001F008FC6F200BE00949002008700A463D
S113869001230621D02001F0FDFB702000E07120B1
S11386A0207508B0BDE87040FBF762BE08B070BD2D
S11386B0201F002034CF0100AC0A00202DE9F8432C
S11386C0DFF81C45207902280ED11422DFF8141596
S11386D0DFF8140500F0D0FC1422DFF81015DFF8E1
S11386E0100500F0C9FC14E0012812D11422DFF8AF
S11386F00415DFF8F404DFF8F85400F0BDFC226838
S1138700DFF8F414284600F0AFFF1021284600F0EB
S113871075FBDFF8E84420788007FAD57B20A4F8BD
S11387200300DFF8CC54DFF8D864A87D7B30A8754B
S11387304FF4FA70C046C0460020A8750CE02178BA
S11387408907FCD5A4F80300761CA97D4018A875F8
S11387504FF4FA70C046C04630780028EFD1DFF8F5
S11387608864B0460DE021788907FCD5A4F803009D
S113877008F10108A97D4018A8754FF4FA70C046A5
S1138780C04698F800000028EDD10FF2882847462B
S11387900CE021788907FCD5A4F803007F1CA97D8F
S11387A04018A8754FF4FA70C046C04638780028BF
S11387B0EFD12F460CE021788907FCD5A4F80300FB
S11387C07F1CA97D4018A8754FF4FA70C046C046B6
S11387D038780028EFD147460CE021788907FCD58A
S11387E0A4F803007F1CA97D4018A8754FF4FA7003
S11387F0C046C04638780028EFD10FF21C270CE0A1
S113880021788907FCD5A4F803007F1CA97D4018B2
S1138810A8754FF4FA70C046C04638780028EFD1E6
S1138820E87E642190FBF1F0303021788907FCD593
S1138830C0B2A4F80300A97D4018A8754FF4FA70DB
S1138840C046C046E87E0A2190FBF1F090FBF1F1AE
S113885001EB8102A0EB4200303021788907FCD57E
S1138860C0B2A4F80300A97D4018A8754FF4FA70AB
S1138870C046C046E87E0A2190FBF1F101EB81027B
S1138880A0EB4200303021788907FCD5C0B2A4F8AF
S11388900300A97D4018A8754FF4FA70C046C0467D
S11388A0287F012808D120788007FCD54120A4F82E
S11388B00300A87D413007E020788007FCD54920DB
S11388C0A4F80300A87D4930A8754FF4FA70C04697
S11388D0C046CC4FAA7D0FF25411384600F0C4FEB6
S11388E0B9460DE021788907FCD5A4F8030009F105
S11388F00109A97D4018A8754FF4FA70C046C04616
S113890099F800000028EDD120788007FCD57D205F
S1138910A4F80300A87D7D30A8754FF4FA70C04612
S1138920C046A87E012872D17B2000F024FB0020E1
S1138930A8750FF208190DE021788907FCD5A4F871
S1138940030009F10109A97D4018A8754FF4FA70D4
S1138950C046C04699F800000028EDD1304600F02A
S113896013FB404600F010FB284600F00DFB404688
S113897000F00AFB0FF2E4060CE021788907FCD52D
S1138980A4F80300761CA97D4018A8754FF4FA706A
S1138990C046C04630780028EFD1E87E642190FBC1
S11389A0F1F03030C0B200F0E6FAE87E0A2190FB24
S11389B0F1F090FBF1F101EB8102A0EB42003030C9
S11389C0C0B200F0D8FAE87E0A2190FBF1F101EB85
S11389D08102A0EB42003030C0B200F0CCFA287F14
S11389E001280CBF4120492000F0C5FA0FF288008D
S11389F000F0CAFAAA7D6DA1384600F035FE38466B
S1138A0000F0C2FABDE8F2437D2000F0B4BABDE83C
S1138A10F18300000D0A00002D2D2D2D2D2D2D2D5F
S1138A202D2D2D2D2D2D2D2D0D0A000041424344B9
S1138A30454647480D0A2A256400000030303D3081
S1138A40302D2D2D2D2D2D2D2D2D2D2D2D2D2D2D4F
S1138A502D2D2D2D2D2D2D0D0A0000002D2D2D2D0C
S1138A602D2D2D2D2D2D2D2D2D2D2D2D2D2D2D2D32
S1138A702D2D0D0A000000000D0A2D2D2D2D2D2D5C
S1138A802D2D2D2D2D2D2D2D2D2D0D0A2A000000DF
S1138A90F0B45A480178E0221142017808D041F03C
S1138AA080010170B0F8030051494875F0BC70476B
S1138AB0490754D54E49B0F803204A754A7F002A25
S1138AC04DD14A7D7B2A02D07D2A14D024E0CB7F6D
S1138AD04D4C2BB981F8203023700123CB772EE045
S1138AE091F820506426642395FBF6F603FB165692
S1138AF07B2737551AE0CB7F0BB391F820306424E1
S1138B0093FBF4F4642505FB14333F4C00251D55F9
S1138B1001234B77CD7712E091F820503A4E64242C
S1138B20642395FBF4F403FB1454A2556C1CE4B2C7
S1138B30642594FBF5F503FB154381F820308B7F06
S1138B40012B0CD103789B07FCD5A0F80320887D6A
S1138B50101888754FF4FA70F0BC04F0C5BEF0BC70
S1138B6070472A482A4A016841F0060101602948F1
S1138B70016841F0400101608021274841700121D2
S1138B800170002141710171AD218181417841F071
S1138B900301417080211160204A11602021204A84
S1138BA01170417841F01001417070472564000054
S1138BB04C1C0020D81E0020581F0020D01E00206E
S1138BC0681F00203C1C00201C200020E10A00201B
S1138BD028200020B81F0020D41E0020E81E0020FA
S1138BE0401F002048CF0100B81E00205CCF0100C8
